:0600000003C1FECFFDCF9D
:10000600FCCFFBCFFACFF9CFF8CFF7CFF6CFF5CFAE
:10001600F4CFF3CFF2CFF1CFF0CFEFCFEECFEDCFDE
:10002600000000000000002F000000070007001479
:100036007F147F14242A7F2A12C4C8102646364904
:100046005522500005030000001C224100004122F9
:100056001C0014083E081408083E0808000050302A
:10006600001010101010006060000020100804023C
:100076003E5149453E00427F40004261514946217A
:1000860041454B311814127F1027454545393C4AE6
:100096004949300171090503364949493606494936
:1000A600291E00363600000056360000081422418C
:1000B60000141414141400412214080201510906F4
:1000C600324959513E7E1111117E7F494949363ECA
:1000D600414141227F4141221C7F494949417F09D3
:1000E6000909013E4149497A7F0808087F00417F96
:1000F60041002040413F017F081422417F4040409B
:10010600407F020C027F7F0408107F3E4141413E42
:100116007F090909063E4151215E7F091929464694
:100126004949493101017F01013F4040403F1F20BD
:1001360040201F3F4038403F63140814630708708F
:1001460008076151494543007F414100552A552A18
:10015600550041417F0004020102044040404040F6
:10016600000102040020545454787F48444438382F
:1001760044444420384444487F3854545418087E34
:100186000901020C5252523E7F0804047800447D55
:1001960040002040443D007F1028440000417F403D
:1001A600007C041804787C080404783844444438F5
:1001B6007C14141408081414187C7C0804040848D9
:1001C60054545420043F4440203C4040207C1C2092
:1001D60040201C3C4030403C44281028440C5050E1
:1001E600503C4464544C440006090906333331300C
:1001F6005F4C434400627920444841524D414E4988
:100206000000F894EE27ECBBF1E0FBBFEBBFE5BFC7
:10021600F8E1F1BDE1BD8DE0A2E0BB27ED938A9543
:10022600E9F780E094E0A0E6ED930197E9F7EFE5C2
:10023600EDBFE4E0EEBFC0E6D1E0B5C0D6D0C298CF
:10024600C49AD3D0C49AC29AE1E2D4D0E0EED2D016
:10025600E4E0D0D0E3E1CED0E0E2CCD0ECE0CAD00E
:1002660011D00895C298C098E881EFB9779BFECF68
:1002760006C0C298C09AE881EFB9779BFECFC29AB2
:1002860021960895C8D0B8D0B7D01AD000E010E0B3
:100296000830E0E01E0774F420E030E02A35E0E0A4
:1002A6003E072CF4A9D0E5DF2F5F3F4FF7CF0F5F56
:1002B6001F4FEECFA1D0A0D003D0B2D02496089580
:1002C600E981E06897D0E881E06494D02AC01A9367
:1002D60093D0CFDF10E0153088F4E981E052A5E035
:1002E600EA9FF001DF01E12FF0E0EA0FFB1FEA5D74
:1002F600FF4FE491EA93BDDF1F5FEDCF7DD0B9DFFD
:1003060018810FC0E881F981E491E03051F0E8816D
:10031600F9813196E883F9833197E491EA93D7DF3F
:10032600F1CF2296089579D010E01730D8F464D032
:100336001A93C6DF00E0043598F4003011F0033557
:1003460011F4EFEF09C0103011F4E8E005C01630E3
:1003560011F4E4E001C0E0E0EA938BDF0F5FEBCF3E
:100366001F5FE3CF62D00895EFEFE8BBE7BBE0E0A5
:10037600E5BBE4BBE2BBEFEFE1BB0895E8E5EDB911
:100386000895E0E0E6BFE2E0E0B9E0E0E1B9E2B915
:10039600E4E4E6BF0895E8DFF1DFF3DFE0E0E5BF80
:1003A600EBBFE9BF089510E0F6DF48DF1ED0BBDFE4
:1003B600E4E0EA93E2E0EA9383DFE2EFF1E0FA9326
:1003C600EA93A0DFE4E0EA93E3E0EA9379DFEBEF78
:1003D600F1E0FA93EA9396DF103019F4909A11E05F
:1003E60002C0909810E0F8CFFFCFE4E6F0E0FA9371
:1003F600EA9305C0EA9336CFE0E0EA930895E991DF
:10040600F991309639F08AEF90E00197F1F7A895C7
:100416003197C9F708953A932A931A930A93089540
:100426003B812A81198108810895099119910895BE
:00000001FF
