S014000061746D656C73747564696F372E737265632E
S11300000C942A000C943C000C943C000C943C008E
S11300100C943C000C943C000C943C000C943C006C
S11300200C943C000C943C000C943C000C943C005C
S11300300C943C000C9479010C943C000C943C000E
S11300400C943C000C943C000C943C000C943C003C
S11300500C943C0011241FBECFE5D8E0DEBFCDBF19
S113006020E0A0E6B0E001C01D92A037B207E1F79E
S11300700E943E000C949D010C94000087E690E0E1
S11300800E946E0178941BBA8FEF8ABB0E947500A0
S1130090C82F8823B9F0682F85E690E00E94D0002D
S11300A080E38C0F0E94750105E610E0D0E0F801B2
S11300B081918F010E947501DF5FCD13F8CF8AE033
S11300C00E9475018BE20E9475018DE20E94750108
S11300D08AE00E947501FFEF2BE782E9F15020408E
S11300E08040E1F700C00000D1CF80916F0080FD17
S11300F005C080916E0090916D000CC080916F00DE
S113010081FD03C090916D0002C090916E008091BA
S11301106E008C5F891B0895E0916E00F0E0E75952
S1130120FF4F808380916F0080FF0BC090916E0021
S113013080916D00981305C080916F008260809358
S11301406F0080916E008F5F80936E00843039F46D
S113015010926E0080916F00816080936F0008950B
S1130160E0916D00F0E0E759FF4F808190916D00C0
S11301709F5F90936D00943011F410926D00209164
S11301806D0090916E0029130AC090916F009E7FBC
S113019090936F0090916F009D7F90936F000895EE
S11301A0CF92DF92EF92FF920F931F93CF93DF933F
S11301B0EC01062F662309F450C080916F0080FD86
S11301C00BC07E01D0E00E94B000F70181937F0153
S11301D0DF5F0D13F8CF41C080916F00846080937E
S11301E06F0080916F0081FF04C080916E00809346
S11301F06D0080916D0014E0181B101720F4DC2EA4
S1130200EC2EFD2E0DC01C2FEC2EFD2E0E94B000F6
S1130210F70181937F018E2F811B8017B8F318C0DB
S11302208E2D8D19811730F40E94B000F70181934F
S11302307F01F6CF101761F0FF24F394F10E6E01E5
S1130240C10ED11C0E94B000F60180831F2DF2CF95
S113025080916F008B7F80936F00802FDF91CF910F
S11302601F910F91FF90EF90DF90CF9008950F931F
S11302701F93CF93DF930CB180916F00C091640002
S113028082FF10C081E08C0F80936400C3700C2E39
S1130290000CDD0BC05ADF4F0883DF91CF911F9113
S11302A00F9108951C169CF410E00C2E000CDD0B2D
S11302B0812F90E08C179D0744F4FC01E05AFF4F16
S11302C080810E948C001F5FF3CF10926400802F06
S11302D0DF91CF911F910F910C948C0090BD89B93F
S11302E088E98AB986E880BD08955D9BFECF8CB904
S11302F008951F920F920FB60F9211242F933F93DC
S11303004F935F936F937F938F939F93AF93BF9319
S1130310EF93FF930E943701FF91EF91BF91AF914B
S11303209F918F917F916F915F914F913F912F9109
S11103300F900FBE0F901F901895F894FFCFFA
S9030000FC
