:100000000C942A000C943C000C943C000C943C0092
:100010000C943C000C943C000C943C000C943C0070
:100020000C943C000C943C000C943C000C943C0060
:100030000C943C000C9496000C943C000C943C00F6
:100040000C943C000C943C000C943C000C943C0040
:100050000C943C0011241FBECFE5D8E0DEBFCDBF1D
:1000600010E0A0E6B0E001C01D92A037B107E1F7B3
:100070000E943E000C94BA010C940000CF92DF92D3
:10008000FF920F931F93CF93DF9387E690E00E9438
:10009000820078941BBA8FEF8ABB80E9C82E81E07A
:1000A000D82E0E94BA00F82E8823D9F085E690E079
:1000B0006F2D0E9420018F2D805D0E94890005E632
:1000C00010E0CF2DD0E0C00FD11F05C0F801819105
:1000D0008F010E9489000C171D07C1F78AE00E945A
:1000E00089008BE20E9489008DE20E9489008AE0EB
:1000F0000E94890080E395E7F6013197F1F70197B7
:10010000D9F7CFCF90BD89B988E98AB986E880BD93
:1001100008955D9BFECF8CB908955F9BFECF8CB197
:10012000089501C08CB15F99FDCF08951F920F9281
:100130000FB60F9211242F933F934F935F936F93BA
:100140007F938F939F93AF93BF93EF93FF930E94FF
:100150008501FF91EF91BF91AF919F918F917F9119
:100160006F915F914F913F912F910F900FBE0F9024
:100170001F90189580916F0080FD05C090916E00D2
:1001800080916D000CC080916F0081FD03C0809153
:100190006D0002C080916E0090916E009C5F981B74
:1001A000892F0895E0916E00F0E0E759FF4F8083BA
:1001B00080916F0080FF0BC090916E0080916D0068
:1001C000981729F480916F00826080936F0080916E
:1001D0006E008F5F80936E0080916E00843039F4E2
:1001E00010926E0080916F00816080936F0008957F
:1001F000E0916D00F0E0E759FF4FE08180916D00E4
:100200008F5F80936D0080916D00843011F41092A7
:100210006D0090916D0080916E00981751F480915F
:100220006F008E7F80936F0080916F008D7F809331
:100230006F008E2F089580916E0080936D00089559
:10024000CF92DF92EF92FF920F931F93CF93DF93A2
:100250007C01D62E662311F460E04DC080916F00C2
:1002600080FD0BC0E70110E004C00E94F8008993F4
:100270001F5F1D15D0F36D2D3EC080916F0084600F
:1002800080936F0080916F0081FF04C080916E00A9
:1002900080936D0080916D0004E0081B0D1518F42B
:1002A000E70110E010C01E2DC701EC010E94F8000C
:1002B00089939E01211B2D15C8F36D2D17C00E9437
:1002C000F80089931F5F1017D0F3CD2CC01A10E0EF
:1002D00007C00E94F800F701ED0DF11D80831F5F3C
:1002E000D12ED00E1C15A8F3602F6C0D80916F00DD
:1002F0008B7F80936F00862FDF91CF911F910F919D
:10030000FF90EF90DF90CF9008950F931F93CF93BE
:10031000DF930CB180916F009091600082FF0DC05F
:10032000E92FFF27E7FDF095E370F070EF59FF4FDD
:1003300000839F5F9093600018C019169CF410E032
:10034000C92FDD27C7FDD09506C0EF59FF4F80812B
:100350000E94D2001F5FE12FF0E0EC17FD07ACF325
:1003600010926000802F0E94D200DF91CF911F91E8
:080370000F910895F894FFCFEE
:00000001FF
